:02000004F90001
:1000000097110000938181C5138181A2170500001B
:100010001305853897050000938505381386C1813F
:1000200063FCC5008322050023A05500130545008D
:1000300093854500E3E8C5FE1385C1819385018260
:100040006378B5002320050013054500E36CB5FE79
:10005000EF000001EF00000A6F0000006780000061
:10006000130101FF23248100232021011704000034
:100070001304843217090000130909323309894037
:10008000232611002322910013592940630E0900F1
:100090009304000083270400938414001304440095
:1000A000E7800700E31899FE170400001304C42E2C
:1000B000170900001309492E3309894013592940B3
:1000C000630E090093040000832704009384140046
:1000D00013044400E7800700E31899FE8320C10061
:1000E000032481008324410003290100130101013D
:1000F00067800000370500F9130101FF13058540F3
:10010000232611002324810023229100EF00000602
:10011000370500F91305C541EF004005370401F824
:10012000B70400F98327440093D78701E38C07FEC7
:100130008327440093D78701E38C07FE83250400BF
:100140001385044593F5F50FEF0040026FF09FFD16
:10015000370701F88327470093D7070193F7F70F75
:10016000E38A07FE2320A70067800000130101F83F
:100170002326310523244105232AF106B70900F976
:1001800093074106370A00F9232821052322510548
:1001900023206105232E7103232C8103232E1104B8
:1001A000232C8104232A9104232A9103930A050016
:1001B0002322B1062324C1062326D1062328E106E3
:1001C000232C0107232E11072326F1001309000019
:1001D000130B5002930B3006370C00F99389093E3C
:1001E000130A4A3FB3872A0103C50700631C0502AF
:1001F0008320C105032481058324410503290105CA
:100200008329C104032A8104832A4104032B0104A6
:10021000832BC103032C8103832C410313010108A9
:1002200067800000631E65031307300793064006CE
:10023000130680059305800713056006130919004E
:10024000B3872A0183C70700638E0702639E770185
:100250008327C10003C50700138747002326E10059
:10026000EFF01FEF6F0000026398E7028327C100E1
:1002700003A40700138747002326E1000345040079
:1002800063160500130919006FF0DFF5130414005D
:10029000EFF01FEC6FF09FFE6392D7068327C1003B
:1002A00083A40700138747002326E10063D80400D6
:1002B0001305D002EFF0DFE9B3049040130401010D
:1002C000930C04001307A000639E0400630C9401C8
:1002D0001304F4FF03450400EFF09FE7E31A94FFD3
:1002E0006FF05FFAB3E7E402130414009387070387
:1002F000A30FF4FEB3C4E4026FF01FFD639EC702B8
:100300008327C1001304C0019304C0FF83AC07001E
:10031000138747002326E100B3D78C0093F7F7003B
:10032000B307FA0003C507001304C4FFEFF05FE250
:10033000E31494FE6FF01FF5639EB7028327C1009C
:100340001304C0019304C0FF83AC07001387470068
:100350002326E100B3D78C0093F7F700B387F900A9
:1003600003C507001304C4FFEFF09FDEE31494FEFF
:100370006FF05FF1E394A7EC13044C396F00C000F9
:1003800013041400EFF0DFDC03450400E31A05FE5C
:040390006FF05FEFBC
:100394003C466C6F6174696E6720706F696E74207F
:1003A4007072696E74696E67206E6F7420656E6119
:1003B400626C652E20506C6561736520456E6162C8
:1003C4006C65206974206174206273702E682066E5
:1003D400697273742E2E2E3E0000000030313233C9
:1003E400343536373839616263646566000000006D
:1003F4003031323334353637383941424344454657
:100404000000000055617274206563686F206465A4
:100414006D6F2021200D0A00537461727420747969
:1004240070696E67206F6E207465726D696E616CA1
:1004340020746F2073656E642063686172616374F5
:1004440065722E2E2E200D0A000000006563686F71
:10045400206368617261637465723A202563200DBC
:0E0464000A0000000000000000000000000080
:04000005F9000000FE
:00000001FF
